:100000000C9463000C948B000C948B000C94E00314
:100010000C94E0030C94E0030C948B000C948B0084
:100020000C948B000C948B000C948B000C948B0024
:100030000C948B000C948B000C948B000C948B0014
:100040000C9496030C948B000C9464030C943E0364
:100050000C948B000C948B000C948B000C948B00F4
:100060000C948B000C948B0000000008000201002F
:100070000003040700000000000000000000000072
:10008000250028002B0000000000240027002A0083
:1000900000000000230026002900040404040404D6
:1000A0000404020202020202030303030303010227
:1000B00004081020408001020408102001020408F6
:1000C00010205A04EA0611241FBECFEFD8E0DEBF8D
:1000D000CDBF11E0A0E0B1E0E8EAF1E102C0059097
:1000E0000D92AE38B107D9F723E0AEE8B1E001C018
:1000F0001D92A136B207E1F710E0C2E6D0E004C0DD
:100100002197FE010E941C07C136D107C9F70E9442
:100110005C050C94C7080C940000EBE5F2E0A089A4
:10012000B18982E08C93A485B5851C92A685B7859C
:1001300080E18C93108EA489B58986E08C93A28986
:10014000B3898C9180618C93A289B3898C918860EA
:100150008C93A289B3898C9180688C930288F389EF
:10016000E02D80818F7D80830895CF92DF92EF9282
:10017000FF920F931F93CF93DF936C017A018B0152
:10018000C0E0D0E0CE15DF0589F0D8016D918D017A
:10019000D601ED91FC910190F081E02DC601099509
:1001A000892B11F47E0102C02196ECCFC701DF91AB
:1001B000CF911F910F91FF90EF90DF90CF90089516
:1001C000FC01918D828D981761F0828DDF01A80F5F
:1001D000B11D5D968C91928D9F5F9F73928F90E081
:1001E00008958FEF9FEF0895FC01918D828D9817F0
:1001F00031F0828DE80FF11D858D90E008958FEF2D
:100200009FEF0895FC01918D228D892F90E0805CF5
:100210009F4F821B91098F73992708958BE592E078
:100220000E94020121E0892B09F420E0822F089529
:10023000FC01848DDF01A80FB11DA35ABF4F2C9183
:10024000848D90E001968F739927848FA689B78952
:100250002C93A089B1898C9180648C93938D848D2B
:10026000981306C00288F389E02D80818F7D8083FA
:100270000895EF92FF920F931F93CF93DF93EC01BA
:1002800081E0888F9B8D8C8D981305C0E889F98952
:10029000808185FD24C0F62E0B8D10E00F5F1F4F6F
:1002A0000F731127E02E8C8DE8120CC00FB607FCDF
:1002B000FACFE889F989808185FFF5CFCE010E94C8
:1002C0001801F1CF8B8DFE01E80FF11DE35AFF4FAE
:1002D000F0820B8FEA89FB898081806207C0EE89FA
:1002E000FF896083E889F98980818064808381E067
:1002F00090E0DF91CF911F910F91FF90EF900895C3
:10030000CF93DF93EC01888D8823C9F0EA89FB89BC
:10031000808185FD05C0A889B9898C9186FD0FC0B3
:100320000FB607FCF5CF808185FFF2CFA889B98988
:100330008C9185FFEDCFCE010E941801E7CFDF91B0
:10034000CF91089580E090E0892B29F00E940E0162
:1003500081110C940000089590E0FC01E859FF4FD2
:100360003491FC01E255FF4F2491FC01E656FF4F0A
:10037000E491EE2309F43BC0332339F1333091F09B
:1003800038F43130A9F0323001F584B58F7D12C0D8
:10039000373091F03830A1F03430B9F480918000DA
:1003A0008F7D03C0809180008F77809380000DC087
:1003B00084B58F7784BD09C08091B0008F7703C06A
:1003C0008091B0008F7D8093B000F0E0EE0FFF1FB2
:1003D000E458FF4FA591B4918FB7F894EC91611157
:1003E00003C020952E2301C02E2B2C938FBF089580
:1003F0003FB7F8948091CF019091D001A091D101A5
:10040000B091D20126B5A89B05C02F3F19F00196E7
:10041000A11DB11D3FBFBA2FA92F982F8827820F8A
:10042000911DA11DB11DBC01CD0142E0660F771FDA
:10043000881F991F4A95D1F708958F929F92AF9286
:10044000BF92CF92DF92EF92FF926B017C010E94EC
:10045000F8014B015C01C114D104E104F104F1F095
:100460000E94F801DC01CB0188199909AA09BB098E
:10047000883E9340A105B10570F321E0C21AD1086E
:10048000E108F10888EE880E83E0981EA11CB11CDB
:10049000C114D104E104F10419F7DDCFFF90EF900E
:1004A000DF90CF90BF90AF909F908F900895209154
:1004B000D9013091DA012817390771F49091D701E9
:1004C0008091D801981741F0E091D701F0E0E25710
:1004D000FE4F808190E008958FEF9FEF089508957B
:1004E0001F93CF93DF93DC015C962D913C915D9738
:1004F0002115310539F481E090E013969C938E9399
:1005000012973DC05196ED91FC91529750969C9157
:100510005097892F80951FB75E964C915E9741FB4F
:10052000772770F941FD6095F8944081772311F0A9
:10053000492B01C048234083E9012197F1F748E0A6
:10054000508160FF02C0592B01C058235083E9013C
:100550002197F1F76695415099F7772321F0908123
:100560008923808303C08081982B90831FBF5C9672
:100570008D919C915D970197F1F721E030E0C901E1
:10058000DF91CF911F9108952091D9013091DA0127
:100590002817390771F48091D8012091D70190E094
:1005A000805C9F4F821B910960E470E00E94F4061A
:1005B000089580E090E008952091D9013091DA010A
:1005C00028173907B9F49091D7018091D80198176D
:1005D00089F0E091D701F0E0E257FE4F8081209151
:1005E000D70130E02F5F3F4F2F7333272093D70180
:1005F00090E008958FEF9FEF0895E091D901F09179
:10060000DA01E817F90769F4A389B4899C9185890F
:10061000809589238C931092DA011092D90181E0A0
:10062000089580E008956115710579F0FB0101904E
:100630000020E9F73197AF01461B570BDC01ED9124
:10064000FC910280F381E02D099480E090E0089510
:100650000F931F93CF93DF93EC010E9413038C0140
:100660006FE271E0CE010E941303800F911FDF91B2
:10067000CF911F910F9108950E9422071F920F9210
:100680000FB60F9211242F933F934F935F936F9365
:100690007F938F939F93AF93BF93EF93FF938BE5DC
:1006A00092E00E941801FF91EF91BF91AF919F914D
:1006B0008F917F916F915F914F913F912F910F900B
:1006C0000FBE0F901F9018951F920F920FB60F92AA
:1006D00011242F938F939F93EF93FF93E0916B02DD
:1006E000F0916C028081E0917102F091720282FDC2
:1006F00012C09081809174028F5F8F732091750278
:10070000821751F0E0917402F0E0E55AFD4F958FA9
:100710008093740201C08081FF91EF919F918F912E
:100720002F910F900FBE0F901F9018951F920F9250
:100730000FB60F9211242F933F938F939F93AF93F4
:10074000BF938091D3019091D401A091D501B09134
:10075000D6013091CE0123E0230F2D3720F40196EE
:10076000A11DB11D05C026E8230F0296A11DB11DD4
:100770002093CE018093D3019093D401A093D5010F
:10078000B093D6018091CF019091D001A091D10179
:10079000B091D2010196A11DB11D8093CF0190931C
:1007A000D001A093D101B093D201BF91AF919F919D
:1007B0008F913F912F910F900FBE0F901F90189522
:1007C0001F920F920FB60F9211242F933F934F93C6
:1007D0005F936F937F938F939F93AF93BF93EF93A9
:1007E000FF93E091D901F091DA01309709F451C0FB
:1007F000968DA685B785858591FF04C09C91892338
:1008000029F447C09C91892309F043C0A389B48986
:100810009C918589809589238C93868997890197F6
:10082000F1F7608D718DA685B785558538E020E09C
:10083000CB010197F1F7822F90E095958795282FAE
:100840004C91452309F02068315091F7868D81FD48
:1008500020958091D80190E001968F73992730916F
:10086000D701381749F0A091D801B0E0A257BE4F88
:100870002C938093D80103C0868D8160868F828DF2
:10088000938D0197F1F7A389B4899C918589892B70
:100890008C93FF91EF91BF91AF919F918F917F9139
:1008A0006F915F914F913F912F910F900FBE0F90DD
:1008B0001F901895CF93DF9310925E0210925D0205
:1008C00088EE93E0A0E0B0E080935F029093600236
:1008D000A0936102B093620224E031E030935C02A5
:1008E00020935B0225EC30E030936802209367028E
:1008F00024EC30E030936A022093690220EC30E06F
:1009000030936C0220936B0221EC30E030936E0246
:1009100020936D0222EC30E03093700220936F023E
:1009200026EC30E030937202209371021092740230
:100930001092750210927602109277021092FE02C7
:100940001092FF0210920003109201031092020312
:1009500010920303109204031092050310920603F1
:1009600010920703109208031092090310920A03D1
:1009700010920B0310920C0310920D03109243037C
:10098000109242038093440390934503A09346033F
:10099000B093470384E191E0909341038093400337
:1009A0001092570310925603109259031092580355
:1009B00010925B0310925A0310925D0310925C0335
:1009C00060915E036E7F6D7F60935E0366956170DC
:1009D00081E0682787E00E94AC01E5EBF0E024911C
:1009E000E1EAF0E08491882399F090E0880F991F64
:1009F000FC01EA57FF4FA591B491FC01E458FF4F69
:100A0000859194918FB7F894EC91E22BEC938FBF82
:100A1000E5EBF0E0E491E0935003E1EAF0E0E491EB
:100A2000F0E0EE0FFF1FE458FF4F859194919093F3
:100A3000520380935103E6EBF0E02491E2EAF0E008
:100A400084918823C1F090E0880F991FFC01EA5738
:100A5000FF4FC591D491FC01E458FF4FA591B4918B
:100A60009FB7F8948881E22FE0958E2388838C913C
:100A7000E823EC939FBF80915E0381FD04C061E099
:100A800088E00E94AC0188E080934C03E6EBF0E044
:100A9000E491E0934D03E2EAF0E0E491F0E0EE0F40
:100AA000FF1FE057FF4F8591949190934F038093E0
:100AB0004E03DF91CF910895789484B5826084BD10
:100AC00084B5816084BD85B5826085BD85B5816052
:100AD00085BD80916E00816080936E0010928100D0
:100AE000809181008260809381008091810081608B
:100AF000809381008091800081608093800080914C
:100B0000B10084608093B1008091B00081608093D7
:100B1000B00080917A00846080937A0080917A009E
:100B2000826080937A0080917A00816080937A005D
:100B300080917A00806880937A001092C1001092B0
:100B40003C0310923D0310923E0310923F0310921B
:100B5000FA021092FB021092FC021092FD0260ED6C
:100B600077E080E090E00E941D028BE592E0909398
:100B70003B0380933A030E948D002FB7F894809135
:100B8000D3019091D401A091D501B091D6012FBF8E
:100B90008093FA029093FB02A093FC02B093FD02B3
:100BA00060E271E080913A0390913B030E9413034D
:100BB0006AE070E080E090E00E941D0281E0809396
:100BC0000E030E948D0010925B0310925A03109244
:100BD00059031092580310925703109256038DE94F
:100BE00091E090935D0380935C0390914C03963168
:100BF00008F057C02DEB30E0309357032093560395
:100C00002BE931E030935903209358032CE231E073
:100C100030935B0320935A0320916800983050F082
:100C200031E09E3008F430E081E001C0880F3A9551
:100C3000EAF701C084E0822B80936800983038F096
:100C40009E3040F0963148F020E030E008C02DE6BC
:100C500030E005C02BE630E002C02CE630E03093F7
:100C6000540320935303983030F481E001C0880F7F
:100C70009A95EAF70EC0292F30E09E3018F42850DC
:100C8000310902C02E50310981E001C0880F2A9538
:100C9000EAF78093550380915C0390915D0301977F
:100CA000F1F780915A0390915B03892B21F1809198
:100CB000D9019091DA0123E080349207E1F00097A6
:100CC00011F00E94FD0280915E038E7F80935E038F
:100CD0001092D8011092D70180E493E09093DA014A
:100CE0008093D901E0915303F09154039081809156
:100CF0005503892B808362E371E080E493E00E94D6
:100D0000280363E471E080E493E00E9428036CE52B
:100D100071E080E493E00E9428030BED11E0D0E83D
:100D2000F8012D2F11922A95E9F7C0E080E493E0B5
:100D30000E9457020196D1F380E493E00E94DC0206
:100D4000EC2FF0E0E552FE4F8083CC2329F0843273
:100D500019F48093DB01C0E08091DB01843231F72C
:100D600081E08C0FEC2FF0E0E552FE4F90819A303D
:100D700011F0C82FDBCF90E0FC01E752FE4F10824C
:100D80007C01F5E0EF1AF108F701E552FE4F2081F2
:100D90002A3259F640E150E060E070E089529E4FFF
:100DA0000E94270721E0822F90E08E159F053CF4DA
:100DB000FC01E552FE4F808168272F5FF4CF61115F
:100DC000B4CF6BED71E08BE592E00E9428030E94A6
:100DD000A201A6CF84E191E0909341038093400368
:100DE00080E493E00C94FD0297FB072E16F4009428
:100DF00007D077FD09D00E94080707FC05D03EF414
:100E0000909581959F4F0895709561957F4F0895B6
:100E1000AA1BBB1B51E107C0AA1FBB1FA617B70720
:100E200010F0A61BB70B881F991F5A95A9F780953C
:100E30009095BC01CD010895EE0FFF1F0590F49130
:100E4000E02D099481E090E0F8940C94C708A0E0AC
:100E5000B0E0EDE2F7E00C9481085C016B017A01EF
:100E60006115710519F0FB0191838083E114F10490
:100E700029F0C7010297839708F0F1C0E501219698
:100E8000F5011081812F90E00E943808892B11F024
:100E90005E01F4CF1D3229F42196F501118101E0A4
:100EA00007C01B3221F4E5012296F501118100E013
:100EB000E114F10459F1F0E1EF16F10461F410339B
:100EC000E1F488818F7D883569F519812296026069
:100ED00070E1E72EF12C88E0E816F10439F12CF4EA
:100EE000F2E0EF16F104C9F12AC08AE0E816F10435
:100EF00079F0E0E1EE16F10411F550E1E52EF12C68
:100F0000812C912CA12C68E0B62E2CC01033C9F294
:100F10003AE0E32EF12C4CEC842E982CA82C4CE0DB
:100F2000B42E20C010E3E114F104A9F698E0E92EF4
:100F3000F12C812C912CA12C20E1B22E13C060E069
:100F400070E080E090E897010F2C000C440B550BEB
:100F50000E94540849015A0105C0812C912CA12CF2
:100F600080E4B82E60E020E030E0A90127010F2CDA
:100F7000000C660877081E01E0EDE10FEA3060F032
:100F80008FEB810F8A3110F4E9EC05C08FE9810FF6
:100F90008A3128F5E9EAE10F8E2F90E08E159F0542
:100FA000F4F467FD18C082169306A406B50690F007
:100FB000C301B2010E9444089B01AC012E0F311DF8
:100FC000411D511D213031054105F0E85F0710F446
:100FD00061E001C06FEF2196F1011081CCCF802F2D
:100FE0008170C114D10471F0662329F02197F601B4
:100FF000D183C08307C001FF19C02297F601D183B6
:10100000C08314C067FF12C0811105C02FEF3FEFEE
:101010004FEF5FE704C020E030E040E050E882E2BC
:1010200090E09093600380935F0316C0882341F0A3
:1010300050954095309521953F4F4F4F5F4F0CC0D5
:1010400057FF0AC082E290E09093600380935F03B1
:101050002FEF3FEF4FEF5FE7B901CA0104C060E037
:1010600070E080E090E0CDB7DEB7E2E10C949D083F
:1010700091110C944108803219F089508550C8F7BD
:101080000895992788270895DB018F939F930E94E5
:101090007608BF91AF91A29F800D911DA39F900DE7
:1010A000B29F900D11240895A1E21A2EAA1BBB1B1A
:1010B000FD010DC0AA1FBB1FEE1FFF1FA217B30724
:1010C000E407F50720F0A21BB30BE40BF50B661F3A
:1010D000771F881F991F1A9469F7609570958095FE
:1010E00090959B01AC01BD01CF0108950E94B80805
:1010F000A59F900DB49F900DA49F800D911D11246C
:1011000008952F923F924F925F926F927F928F92AB
:101110009F92AF92BF92CF92DF92EF92FF920F9386
:101120001F93CF93DF93CDB7DEB7CA1BDB0B0FB690
:10113000F894DEBF0FBECDBF09942A88398848884D
:101140005F846E847D848C849B84AA84B984C884E3
:10115000DF80EE80FD800C811B81AA81B981CE0FDA
:10116000D11D0FB6F894DEBF0FBECDBFED010895BF
:10117000A29FB001B39FC001A39F700D811D1124D8
:10118000911DB29F700D811D1124911D089510E0D5
:10119000C2E6D0E004C0FE010E941C072196C336BF
:0811A000D107C9F7F894FFCF55
:1011A800000000003901B5000201E000F4008001F0
:1011B800000000007002B500C402DC0257026F0292
:1011C800564D4450565F317C315F564D4450560D54
:1011D8000A0024504D544B3232302C313030302AF2
:1011E80031460024504D544B3330302C31303030A0
:1011F8002C302C302C302C302A31430024504D54C4
:101208004B3331342C302C312C302C302C302C30CA
:101218002C302C302C302C302C302C302C302C30E6
:0E1228002C302C302C302C302C302A32390057
:00000001FF
